:100000000C948A000C94B2000C94B2000C94B200D0
:100010000C94B2000C94B2000C94B2000C94B20098
:100020000C94B2000C94B2000C94B2000C94B20088
:100030000C94B2000C94B2000C94B2000C94B20078
:100040000C9442030C94B2000C94B2030C948C03F5
:100050000C94B2000C94B2000C94B2000C94B20058
:100060000C94B2000C94B20008000000BE92244927
:10007000123EABAAAA2ABECDCCCC4C3E00000080DA
:10008000BEABAAAAAA3E00000000BF000000803F4D
:100090000000000000084178D3BB4387D1133D190D
:1000A0000E3CC3BD4282AD2B3E68EC8276BED98F3A
:1000B000E1A93E4C80EFFFBE01C4FF7F3F0000007E
:1000C0000000000000080002010000030407000017
:1000D00000000000000000000000250028002B00A8
:1000E00000000000240027002A0004040404040483
:1000F00004040202020202020303030303030102D7
:1001000004081020408001020408102001020408A5
:100110001020E40311241FBECFEFD8E0DEBFCDBF17
:1001200011E0A0E0B1E0ECEBF3E102C005900D922C
:10013000A633B107D9F722E0A6E3B1E001C01D92D2
:10014000A230B207E1F710E0CAE8D0E004C021977E
:10015000FE010E941007C938D107C9F70E94F804B0
:100160000C94DC090C94000090E0FC01E250FF4F7D
:100170002491FC01E651FF4F8491882399F090E08F
:10018000880F991FFC01E052FF4FA591B491FC012B
:10019000EA52FF4F859194918FB7F894EC91E22B3E
:1001A000EC938FBF089590E0FC01EE53FF4F349124
:1001B000FC01E250FF4F2491FC01E651FF4FE49116
:1001C000EE2309F43BC0332339F1333091F038F496
:1001D0003130A9F0323001F584B58F7D12C037304F
:1001E00091F03830A1F03430B9F4809180008F7DE7
:1001F00003C0809180008F77809380000DC084B50C
:100200008F7784BD09C08091B0008F7703C0809143
:10021000B0008F7D8093B000F0E0EE0FFF1FEA5238
:10022000FF4FA591B4918FB7F894EC91611103C081
:1002300020952E2301C02E2B2C938FBF0895CF9392
:10024000DF93EC0160E08E810E94D30061E08E813B
:100250000E94D30060E08E810E94D3008BE891E081
:100260000197F1F7DF91CF910895CF92DF92EF924E
:10027000FF920F931F93CF93DF937C016C0187E074
:10028000C80ED11CC0E0D0E0062F10E0B8010C2E43
:1002900002C0759567950A94E2F76170F601819145
:1002A0006F010E94D3002196C430D10579F7C701B0
:1002B000DF91CF911F910F91FF90EF90DF90CF9042
:1002C0000C941F01CF92DF92EF92FF920F931F9336
:1002D000CF93DF93EC01F62E642F8C810E94D30024
:1002E0008D818F3F19F060E00E94D3008F850F2D24
:1002F00010E084FF25C06E0187E0C80ED11CE12C00
:10030000F12CB8010E2C02C0759567950A94E2F79E
:100310006170F60181916F010E94D300FFEFEF1A27
:10032000FF0A88E0E816F10461F7CE01DF91CF9172
:100330001F910F91FF90EF90DF90CF900C941F01D1
:10034000B80184E0759567958A95E1F7CE010E9422
:1003500035016F2DCE01DF91CF911F910F91FF904D
:10036000EF90DF90CF900C94350141E00E94620144
:1003700081E090E0089540E00C9462013FB7F8946A
:100380008091490190914A01A0914B01B0914C019B
:1003900026B5A89B05C02F3F19F00196A11DB11DE0
:1003A0003FBFBA2FA92F982F8827820F911DA11D1B
:1003B000B11DBC01CD0142E0660F771F881F991F58
:1003C0004A95D1F70895CF92DF92EF92FF920F9363
:1003D0001F93CF93DF936C017A018B01C0E0D0E0D3
:1003E000CE15DF0589F0D8016D918D01D601ED9113
:1003F000FC910190F081E02DC6010995892B11F443
:100400007E0102C02196ECCFC701DF91CF911F91F1
:100410000F91FF90EF90DF90CF900895089580E0C6
:1004200090E00895FC01538D448D252F30E0842FFA
:1004300090E0821B930B541710F0CF96089501970C
:100440000895FC01918D828D981761F0828DDF01F6
:10045000A80FB11D5D968C91928D9F5F9F73928FB7
:1004600090E008958FEF9FEF0895FC01918D828DAC
:10047000981731F0828DE80FF11D858D90E0089579
:100480008FEF9FEF0895FC01918D228D892F90E0D1
:10049000805C9F4F821B91098F73992708958DE48B
:1004A00091E00E94430221E0892B09F420E0822F91
:1004B0000895FC01848DDF01A80FB11DA35ABF4F21
:1004C0002C91848D90E001968F739927848FA68953
:1004D000B7892C93A089B1898C9180648C93938D7A
:1004E000848D981306C00288F389E02D80818F7D6A
:1004F00080830895EF92FF920F931F93CF93DF9322
:10050000EC0181E0888F9B8D8C8D981305C0E88964
:10051000F989808185FD24C0F62E0B8D10E00F5FD8
:100520001F4F0F731127E02E8C8DE8120CC00FB6F1
:1005300007FCFACFE889F989808185FFF5CFCE01E4
:100540000E945902F1CF8B8DFE01E80FF11DE35A95
:10055000FF4FF0820B8FEA89FB898081806207C0A0
:10056000EE89FF896083E889F989808180648083CE
:1005700081E090E0DF91CF911F910F91FF90EF907C
:100580000895CF93DF93EC01888D8823C9F0EA8921
:10059000FB89808185FD05C0A889B9898C9186FD7C
:1005A0000FC00FB607FCF5CF808185FFF2CFA88979
:1005B000B9898C9185FFEDCFCE010E945902E7CF1A
:1005C000DF91CF91089580E090E0892B29F00E947F
:1005D0004F0281110C9400000895009769F0FC010E
:1005E00001900020E9F73197AF01481B590BBC017E
:1005F0008AEE91E00C94E30180E090E008958F9200
:100600009F92AF92BF920F931F93CF93DF93CDB77B
:10061000DEB7A1970FB6F894DEBF0FBECDBF19A20B
:10062000423008F44AE08E010F5D1F4F842E912C5A
:10063000A12CB12CA50194010E94EE06E62FB90170
:10064000CA0101501109EA3014F4E05D01C0E95C0F
:10065000D801EC93232B242B252B61F7C8010E9492
:10066000ED02A1960FB6F894DEBF0FBECDBFDF91AD
:10067000CF911F910F91BF90AF909F908F90089551
:100680000E94D7091F920F920FB60F9211242F9339
:100690003F938F939F93AF93BF9380914501909128
:1006A0004601A0914701B09148013091440123E0F7
:1006B000230F2D3720F40196A11DB11D05C026E89A
:1006C000230F0296A11DB11D209344018093450183
:1006D00090934601A0934701B0934801809149014E
:1006E00090914A01A0914B01B0914C010196A11D3E
:1006F000B11D8093490190934A01A0934B01B0939F
:100700004C01BF91AF919F918F913F912F910F908D
:100710000FBE0F901F9018951F920F920FB60F9259
:1007200011242F933F934F935F936F937F938F93F6
:100730009F93AF93BF93EF93FF938DE491E00E945B
:100740005902FF91EF91BF91AF919F918F917F914E
:100750006F915F914F913F912F910F900FBE0F902E
:100760001F9018951F920F920FB60F9211242F937E
:100770008F939F93EF93FF93E0915D01F0915E0162
:100780008081E0916301F091640182FD12C090814B
:10079000809166018F5F8F7320916701821751F0FE
:1007A000E0916601F0E0E35BFE4F958F8093660178
:1007B00001C08081FF91EF919F918F912F910F90B8
:1007C0000FBE0F901F901895CF93DF93109250019A
:1007D00010924F0188EE93E0A0E0B0E080935101C9
:1007E00090935201A0935301B093540184E091E09F
:1007F00090934E0180934D0185EC90E090935A01C7
:100800008093590184EC90E090935C0180935B01AC
:1008100080EC90E090935E0180935D0181EC90E02C
:100820009093600180935F0182EC90E0909362016D
:100830008093610186EC90E0909364018093630162
:10084000109266011092670110926801109269017E
:100850001092ED011092EC0186E191E09093EB0192
:100860008093EA018CE08093EE018BE08093EF01AE
:100870008AE08093F00185E08093F10184E0809329
:10088000F20183E08093F30182E08093F4011092FF
:10089000F5011092F6011092F7011092F8011092F2
:1008A000F90181E08093FD011092FE0180E48093C4
:1008B000FF0180E18093000280E5809301028CE0DB
:1008C0000E94B4008091EF018F3F11F00E94B400AC
:1008D0008091F0010E94B400C0E0D0E08091F90165
:1008E00084FD03C084E090E002C088E090E0C81777
:1008F000D90744F4FE01E651FE4F87810E94B400FF
:100900002196ECCF8BE39DE00197F1F760E08091B9
:10091000EE010E94D30060E08091F0010E94D300BC
:100920008091EF018F3F19F060E00E94D300609149
:10093000F90164FD20C063E08AEE91E00E94350178
:10094000CBE4D6E4CE010197F1F763E08AEE91E0C3
:100950000E9435012197F1F763E08AEE91E00E9451
:10096000350183E592E00197F1F762E08AEE91E0CC
:100970000E9435011BC060628AEE91E00E94BB01BB
:100980008BE496E40197F1F76091F90160628AEED9
:1009900091E00E94BB0183E592E00197F1F760913D
:1009A000F90160628AEE91E00E94BB016091F90159
:1009B00060628AEE91E00E94BB0184E08093FA01BC
:1009C0006CE08AEE91E00E94BB0161E08AEE91E06A
:1009D0000E94BB018BE39FE10197F1F782E08093D6
:1009E000FB0166E08AEE91E0DF91CF910C94BB01B0
:1009F000789484B5826084BD84B5816084BD85B5FA
:100A0000826085BD85B5816085BD80916E00816005
:100A100080936E00109281008091810082608093AB
:100A200081008091810081608093810080918000AD
:100A30008160809380008091B10084608093B100D8
:100A40008091B00081608093B00080917A008460D2
:100A500080937A0080917A00826080937A008091FE
:100A60007A00816080937A0080917A008068809318
:100A70007A001092C100E0915D01F0915E0182E088
:100A80008083E0915901F0915A011082E0915B015D
:100A9000F0915C018FEC808310926501E09161011F
:100AA000F091620186E08083E0915F01F091600146
:100AB000808180618083E0915F01F091600180819D
:100AC00088608083E0915F01F0916001808180689F
:100AD0008083E0915F01F091600180818F7D808350
:100AE00010E4CBE3DFE110937C0080917A00806416
:100AF00080937A0080917A0086FDFCCF6091780027
:100B00008091790070E0782B7093430160934201EB
:100B1000072E000C880B990B0E942B089B01AC013F
:100B200060E070EC8FE794E40E94880720E030E0FA
:100B300040E85FE30E94160720E030E44CE156E411
:100B40000E94300960933E0170933F018093400101
:100B5000909341010E94E8086B017C0160933A0187
:100B600070933B0180933C0190933D0126ED34E668
:100B700049E759E30E9430092BEC38E444E85AE392
:100B80000E9417074B015C012CE63FEC48E554E35B
:100B9000C701B6010E943009A70196010E943009E1
:100BA000A70196010E9430099B01AC01C501B40167
:100BB0000E9417079B01AC0160E070E080E89FE3B2
:100BC0000E94880723E333E948E853E40E941607AC
:100BD00020E030E040E151E40E94300920E030E0C4
:100BE00040EA50E40E94880720E030E040E052E410
:100BF0000E94170760933601709337018093380184
:100C0000909339018EE191E00E94ED02C09036018F
:100C1000D0903701E0903801F0903901A70196019A
:100C2000C701B6010E949D09882319F086E291E070
:100C30001AC046015701E894B7F82FEF3FEF4FE78E
:100C40005FE7C501B4010E949D0981110FC02FEF1C
:100C50003FEF4FE75FE7C501B4010E948307181615
:100C60002CF48AE291E00E94ED0282C02FEF3FEF68
:100C70004FE75FE4C701B6010E94DB0818161CF4B9
:100C80008EE291E0F0CF2FEF3FEF4FE75FECC7012F
:100C9000B6010E94830787FDF3CF20E030E0A90171
:100CA000C701B6010E94830787FF0FC0E091EA01E8
:100CB000F091EB010190F081E02D6DE28AEE91E080
:100CC0000995F7FAF094F7F8F0942AE037ED43EA43
:100CD0005BE3C701B6010E9417074B015C010E944C
:100CE000FA076B017C010E9429089B01AC01C50138
:100CF000B4010E9416074B015C014AE0C701B6012E
:100D00000E94FF02E091EA01F091EB010190F08175
:100D1000E02D6EE28AEE91E0099520E030E040E2BD
:100D200051E4C501B4010E9430094B015C010E94ED
:100D3000FA076B01E12CF12C4AE0C701B6010E94D1
:100D4000FF02C701B6010E9429089B01AC01C50141
:100D5000B4010E94160720E030E040E251E40E9416
:100D600030090E94FA0780E090E04AE00E94FF020A
:100D700082E391E00E94ED020E94BE014B015C0102
:100D800084EFC82EDD24D394E12CF12C0E94BE0107
:100D9000DC01CB0188199909AA09BB09883E934057
:100DA000A105B10558F021E0C21AD108E108F10807
:100DB00088EE880E83E0981EA11CB11CC114D104DA
:100DC000E104F10419F761E08AEE91E00E94BB01B1
:100DD000CE010197F1F70E94E30285CEA1E21A2E1F
:100DE000AA1BBB1BFD010DC0AA1FBB1FEE1FFF1FCF
:100DF000A217B307E407F50720F0A21BB30BE40B1F
:100E0000F50B661F771F881F991F1A9469F7609565
:100E10007095809590959B01AC01BD01CF0108951F
:100E2000EE0FFF1F0590F491E02D09945058BB2759
:100E3000AA270E942E070C94A1080E94930838F05C
:100E40000E949A0820F039F49F3F19F426F40C947C
:100E500090080EF4E095E7FB0C948A08E92F0E94B5
:100E6000B20858F3BA17620773078407950720F092
:100E700079F4A6F50C94D4080EF4E0950B2EBA2F55
:100E8000A02D0B01B90190010C01CA01A001112490
:100E9000FF27591B99F0593F50F4503E68F11A163C
:100EA000F040A22F232F342F4427585FF3CF4695CD
:100EB00037952795A795F0405395C9F77EF41F16EF
:100EC000BA0B620B730B840BBAF09150A1F0FF0FB9
:100ED000BB1F661F771F881FC2F70EC0BA0F621FA5
:100EE000731F841F48F4879577956795B795F79595
:100EF0009E3F08F0B0CF9395880F08F09927EE0F2A
:100F00009795879508950E94660808F481E00895F2
:100F10000E949C070C94A1080E949A0858F00E9415
:100F2000930840F029F45F3F29F00C948A0851118E
:100F30000C94D5080C9490080E94B20868F3992389
:100F4000B1F3552391F3951B550BBB27AA276217C5
:100F50007307840738F09F5F5F4F220F331F441FD2
:100F6000AA1FA9F335D00E2E3AF0E0E832D0915006
:100F70005040E695001CCAF72BD0FE2F29D0660FF3
:100F8000771F881FBB1F261737074807AB07B0E836
:100F900009F0BB0B802DBF01FF2793585F4F3AF03C
:100FA0009E3F510578F00C948A080C94D5085F3F59
:100FB000E4F3983ED4F3869577956795B795F795C2
:100FC0009F5FC9F7880F911D9695879597F90895AA
:100FD000E1E0660F771F881FBB1F62177307840746
:100FE000BA0720F0621B730B840BBA0BEE1F88F755
:100FF000E09508950E94BA0888F09F5798F0B92F9D
:101000009927B751B0F0E1F0660F771F881F991F3D
:101010001AF0BA95C9F714C0B13091F00E94D40803
:10102000B1E008950C94D408672F782F8827B85F13
:1010300039F0B93FCCF3869577956795B395D9F795
:101040003EF490958095709561957F4F8F4F9F4F9F
:101050000895E89409C097FB3EF4909580957095AB
:1010600061957F4F8F4F9F4F9923A9F0F92F96E9F4
:10107000BB279395F695879577956795B795F11169
:10108000F8CFFAF4BB0F11F460FF1BC06F5F7F4F06
:101090008F4F9F4F16C0882311F096E911C0772318
:1010A00021F09EE8872F762F05C0662371F096E821
:1010B000862F70E060E02AF09A95660F771F881FF0
:1010C000DAF7880F9695879597F90895990F000894
:1010D000550FAA0BE0E8FEEF16161706E807F9070A
:1010E000C0F012161306E407F50798F0621B730BA5
:1010F000840B950B39F40A2661F0232B242B252B26
:1011000021F408950A2609F4A140A6958FEF811DC8
:10111000811D089597F99F6780E870E060E0089569
:101120009FEF80EC089500240A94161617061806FF
:101130000906089500240A941216130614060506DB
:101140000895092E0394000C11F4882352F0BB0F6C
:1011500040F4BF2B11F460FF04C06F5F7F4F8F4FCF
:101160009F4F089557FD9058440F551F59F05F3F0A
:1011700071F04795880F97FB991F61F09F3F79F0B9
:1011800087950895121613061406551FF2CF46953B
:10119000F1DF08C0161617061806991FF1CF8695BD
:1011A0007105610508940895E894BB2766277727A1
:1011B000CB0197F908950E94660808F48FEF08950F
:1011C00016F00C94A2090C94900868940C948A0868
:1011D0000E94BA08A8F39923C1F3AEF3DF93CF932B
:1011E0001F930F93FF92C92FDD2788232AF02197A1
:1011F000660F771F881FDAF720E030E040E85FEBEA
:101200009FE3883920F0803E38F021968F770E9446
:101210001707E8E6F0E004C00E941707E5E9F0E0F0
:101220000E94B0098B01BE01EC01FB2E6F577109C2
:101230007595771F880B990B0E942B0828E132E7E0
:1012400041E35FE30E944309AF2D9801AE01FF9097
:101250000F911F91CF91DF910E942E070C94A1084E
:101260000E9443090C94A1080E94930838F00E9440
:101270009A0820F0952311F00C948A080C94900899
:1012800011240C94D5080E94B20870F3959FC1F305
:10129000950F50E0551F629FF001729FBB27F00D24
:1012A000B11D639FAA27F00DB11DAA1F649F662779
:1012B000B00DA11D661F829F2227B00DA11D621FC8
:1012C000739FB00DA11D621F839FA00D611D221F82
:1012D000749F3327A00D611D231F849F600D211D66
:1012E000822F762F6A2F11249F5750409AF0F1F0E9
:1012F00088234AF0EE0FFF1FBB1F661F771F881F52
:1013000091505040A9F79E3F510580F00C948A08F7
:101310000C94D5085F3FE4F3983ED4F38695779517
:101320006795B795F795E7959F5FC1F7FE2B880FF7
:10133000911D9695879597F908950E946608880BE8
:10134000990B08959F3F31F0915020F48795779540
:101350006795B795880F911D9695879597F908958C
:10136000DF93CF931F930F93FF92EF92DF927B0156
:101370008C01689406C0DA2EEF010E944309FE0139
:10138000E894A5912591359145915591A6F3EF01EA
:101390000E942E07FE019701A801DA9469F7DF90F9
:1013A000EF90FF900F911F91CF91DF91089581E011
:0C13B00090E0F8940C94DC09F894FFCF56
:1013BC00000000007A02E3011202C1024302210282
:1013CC00350200000000B501E3010F020E02546566
:1013DC006D70203D20006E616E00696E66006F7648
:0613EC006600204600002F
:00000001FF
