:100000000C948A000C94B2000C94B2000C94B200D0
:100010000C94B2000C94B2000C94B2000C94B20098
:100020000C94B2000C94B2000C94B2000C94B20088
:100030000C94B2000C94B2000C94B2000C94B20078
:100040000C94E1030C94B2000C9451040C942B0416
:100050000C94B2000C94B2000C94B2000C94B20058
:100060000C94B2000C94B20008000000BE92244927
:10007000123EABAAAA2ABECDCCCC4C3E00000080DA
:10008000BEABAAAAAA3E00000000BF000000803F4D
:100090000000000000084178D3BB4387D1133D190D
:1000A0000E3CC3BD4282AD2B3E68EC8276BED98F3A
:1000B000E1A93E4C80EFFFBE01C4FF7F3F0000007E
:1000C0000000000000080002010000030407000017
:1000D00000000000000000000000250028002B00A8
:1000E00000000000240027002A0004040404040483
:1000F00004040202020202020303030303030102D7
:1001000004081020408001020408102001020408A5
:100110001020830411241FBECFEFD8E0DEBFCDBF77
:1001200011E0A0E0B1E0E4E7F3E102C005900D9238
:10013000A234B107D9F722E0A2E4B1E001C01D92D8
:10014000AE30B207E1F710E0CAE8D0E004C0219772
:10015000FE010E94EC06C938D107C9F70E94CE04FF
:100160000C94B8090C94000090E0FC01E250FF4FA1
:100170002491FC01E651FF4F8491882399F090E08F
:10018000880F991FFC01E052FF4FA591B491FC012B
:10019000EA52FF4F859194918FB7F894EC91E22B3E
:1001A000EC938FBF089590E0FC01EE53FF4F349124
:1001B000FC01E250FF4F2491FC01E651FF4FE49116
:1001C000EE2309F43BC0332339F1333091F038F496
:1001D0003130A9F0323001F584B58F7D12C037304F
:1001E00091F03830A1F03430B9F4809180008F7DE7
:1001F00003C0809180008F77809380000DC084B50C
:100200008F7784BD09C08091B0008F7703C0809143
:10021000B0008F7D8093B000F0E0EE0FFF1FEA5238
:10022000FF4FA591B4918FB7F894EC91611103C081
:1002300020952E2301C02E2B2C938FBF0895CF9392
:10024000DF93EC0160E08E810E94D30061E08E813B
:100250000E94D30060E08E810E94D3008BE891E081
:100260000197F1F7DF91CF910895CF92DF92EF924E
:10027000FF920F931F93CF93DF937C016C0187E074
:10028000C80ED11CC0E0D0E0062F10E0B8010C2E43
:1002900002C0759567950A94E2F76170F601819145
:1002A0006F010E94D3002196C430D10579F7C701B0
:1002B000DF91CF911F910F91FF90EF90DF90CF9042
:1002C0000C941F01CF92DF92EF92FF920F931F9336
:1002D000CF93DF93EC01F62E642F8C810E94D30024
:1002E0008D818F3F19F060E00E94D3008F850F2D24
:1002F00010E084FF25C06E0187E0C80ED11CE12C00
:10030000F12CB8010E2C02C0759567950A94E2F79E
:100310006170F60181916F010E94D300FFEFEF1A27
:10032000FF0A88E0E816F10461F7CE01DF91CF9172
:100330001F910F91FF90EF90DF90CF900C941F01D1
:10034000B80184E0759567958A95E1F7CE010E9422
:1003500035016F2DCE01DF91CF911F910F91FF904D
:10036000EF90DF90CF900C94350141E00E94620144
:1003700081E090E0089540E00C946201EF92FF92DA
:100380000F931F93CF93DF93EC01623018F08F85AA
:1003900088608F876B8B1C8A80E48D8B80E18E8BCD
:1003A00080E58F8B8C810E94B4008D818F3F11F08E
:1003B0000E94B4008E810E94B4007E0187E0E80EA6
:1003C000F11C00E010E08F8584FD03C084E090E024
:1003D00002C088E090E00817190744F4F701819102
:1003E0007F010E94B4000F5F1F4FEDCF8BE39DE0B4
:1003F0000197F1F760E08C810E94D30060E08E816C
:100400000E94D3008D818F3F19F060E00E94D300DD
:100410006F8564FD1DC063E0CE010E9435010BE4D1
:1004200016E4C8010197F1F763E0CE010E9435019F
:10043000C8010197F1F763E0CE010E94350183E521
:1004400092E00197F1F762E0CE010E94350116C0FB
:100450006062CE010E94BB018BE496E40197F1F744
:100460006F856062CE010E94BB0183E592E0019737
:10047000F1F76F856062CE010E94BB016F856062FB
:10048000CE010E94BB0184E0888B6CE0CE010E940B
:10049000BB0161E0CE010E94BB018BE39FE10197AC
:1004A000F1F782E0898B66E0CE01DF91CF911F9159
:1004B0000F91FF90EF900C94BB013FB7F89480919F
:1004C000550190915601A0915701B091580126B560
:1004D000A89B05C02F3F19F00196A11DB11D3FBF7C
:1004E000BA2FA92F982F8827820F911DA11DB11D0A
:1004F000BC01CD0142E0660F771F881F991F4A9506
:10050000D1F70895CF92DF92EF92FF920F931F934E
:10051000CF93DF936C017A018B01C0E0D0E0CE1560
:10052000DF0589F0D8016D918D01D601ED91FC9127
:100530000190F081E02DC6010995892B11F47E010F
:1005400002C02196ECCFC701DF91CF911F910F918F
:10055000FF90EF90DF90CF900895089580E090E0B5
:100560000895FC01538D448D252F30E0842F90E0B9
:10057000821B930B541710F0CF960895019708959E
:10058000FC01918D828D981761F0828DDF01A80F9B
:10059000B11D5D968C91928D9F5F9F73928F90E0BD
:1005A00008958FEF9FEF0895FC01918D828D98172C
:1005B00031F0828DE80FF11D858D90E008958FEF69
:1005C0009FEF0895FC01918D228D892F90E0805C32
:1005D0009F4F821B91098F739927089589E591E0B8
:1005E0000E94E20221E0892B09F420E0822F089585
:1005F000FC01848DDF01A80FB11DA35ABF4F2C91C0
:10060000848D90E001968F739927848FA689B7898E
:100610002C93A089B1898C9180648C93938D848D67
:10062000981306C00288F389E02D80818F7D808336
:100630000895EF92FF920F931F93CF93DF93EC01F6
:1006400081E0888F9B8D8C8D981305C0E889F9898E
:10065000808185FD24C0F62E0B8D10E00F5F1F4FAB
:100660000F731127E02E8C8DE8120CC00FB607FC1B
:10067000FACFE889F989808185FFF5CFCE010E9404
:10068000F802F1CF8B8DFE01E80FF11DE35AFF4F09
:10069000F0820B8FEA89FB898081806207C0EE8936
:1006A000FF896083E889F98980818064808381E0A3
:1006B00090E0DF91CF911F910F91FF90EF900895FF
:1006C000CF93DF93EC01888D8823C9F0EA89FB89F9
:1006D000808185FD05C0A889B9898C9186FD0FC0F0
:1006E0000FB607FCF5CF808185FFF2CFA889B989C5
:1006F0008C9185FFEDCFCE010E94F802E7CFDF910C
:10070000CF91089580E090E0892B29F00E94EE02BD
:1007100081110C9400000895009769F0FC0101908C
:100720000020E9F73197AF01481B590BBC0186EF58
:1007300091E00C94820280E090E008958F929F9265
:10074000AF92BF920F931F93CF93DF93CDB7DEB7D6
:10075000A1970FB6F894DEBF0FBECDBF19A24230ED
:1007600008F44AE08E010F5D1F4F842E912CA12CBE
:10077000B12CA50194010E94CA06E62FB901CA0155
:1007800001501109EA3014F4E05D01C0E95CD801C0
:10079000EC93232B242B252B61F7C8010E948C039B
:1007A000A1960FB6F894DEBF0FBECDBFDF91CF91FB
:1007B0001F910F91BF90AF909F908F9008950E94CE
:1007C000B3091F920F920FB60F9211242F933F93EC
:1007D0008F939F93AF93BF9380915101909152015A
:1007E000A0915301B09154013091500123E0230FA7
:1007F0002D3720F40196A11DB11D05C026E8230F59
:100800000296A11DB11D2093500180935101909338
:100810005201A0935301B0935401809155019091DE
:100820005601A0915701B09158010196A11DB11D2B
:100830008093550190935601A0935701B0935801AE
:10084000BF91AF919F918F913F912F910F900FBECC
:100850000F901F9018951F920F920FB60F921124B0
:100860002F933F934F935F936F937F938F939F93B8
:10087000AF93BF93EF93FF9389E591E00E94F80255
:10088000FF91EF91BF91AF919F918F917F916F9168
:100890005F914F913F912F910F900FBE0F901F903E
:1008A00018951F920F920FB60F9211242F938F93CA
:1008B0009F93EF93FF93E0916901F0916A0180812A
:1008C000E0916F01F091700182FD12C090818091E2
:1008D00072018F5F8F7320917301821751F0E09145
:1008E0007201F0E0E75AFE4F958F8093720101C0CC
:1008F0008081FF91EF919F918F912F910F900FBE6B
:100900000F901F901895E9E5F1E01382128288EEAE
:1009100093E0A0E0B0E084839583A683B78384E06E
:1009200091E09183808385EC90E09587848784ECC7
:1009300090E09787868780EC90E0918B808B81ECAC
:1009400090E0938B828B82EC90E0958B848B86EC8D
:1009500090E0978B868B118E128E138E148EE6EF9D
:10096000F1E01382128286E191E0918380838CE032
:1009700084838FEF85838BE0868385E0878384E0A3
:10098000808783E0818782E08287138614861586BC
:100990001686178661E0CF010C94BE01789484B569
:1009A000826084BD84B5816084BD85B5826085BD6B
:1009B00085B5816085BD80916E00816080936E00F9
:1009C00010928100809181008260809381008091EB
:1009D000810081608093810080918000816080939C
:1009E00080008091B10084608093B1008091B0005C
:1009F00081608093B00080917A00846080937A0057
:100A000080917A00826080937A0080917A00816080
:100A100080937A0080917A00806880937A001092A7
:100A2000C100E0916901F0916A0182E08083E09168
:100A30006501F09166011082E0916701F091680113
:100A40008FEC808310927101E0916D01F0916E0145
:100A500086E08083E0916B01F0916C018081806180
:100A60008083E0916B01F0916C01808188608083CC
:100A7000E0916B01F0916C01808180688083E0914E
:100A80006B01F0916C0180818F7D808364E086EF43
:100A900091E00E94BE0161E086EF91E00E94BB01FF
:100AA0008BE39FE10197F1F78EE191E00E948C03C7
:100AB000C0E4C0937C0080917A00806480937A00C7
:100AC00080917A0086FDFCCF60917800809179005A
:100AD00070E0782B70934F0160934E01072E000C4D
:100AE000880B990B0E9407089B01AC0160E070EC39
:100AF0008FE794E40E94640720E030E040E85FE381
:100B00000E94F20620E030E543EC57E40E940C0915
:100B100060934A0170934B0180934C0190934D0177
:100B20000E94C4086B017C016093460170934701E9
:100B3000809348019093490126ED34E649E759E353
:100B40000E940C092BEC38E444E85AE30E94F306B7
:100B50004B015C012CE63FEC48E554E3C701B601CC
:100B60000E940C09A70196010E940C09A701960199
:100B70000E940C099B01AC01C501B4010E94F3065F
:100B80009B01AC0160E070E080E89FE30E94640795
:100B900023E333E948E853E40E94F20660934201FC
:100BA000709343018093440190934501E0910902C1
:100BB000E23010F4E15001C0E1E0F0E0EA50FE4F15
:100BC0006489606886EF91E00E94BB018BE291E04E
:100BD0000E948C03C0904201D0904301E0904401F8
:100BE000F0904501A7019601C701B6010E9479095D
:100BF000882319F083E391E01AC046015701E89475
:100C0000B7F82FEF3FEF4FE75FE7C501B4010E9450
:100C1000790981110FC02FEF3FEF4FE75FE7C50163
:100C2000B4010E945F0718162CF487E391E00E943C
:100C30008C0382C02FEF3FEF4FE75FE4C701B6019F
:100C40000E94B70818161CF48BE391E0F0CF2FEF49
:100C50003FEF4FE75FECC701B6010E945F0787FDDA
:100C6000F3CF20E030E0A901C701B6010E945F0781
:100C700087FF0FC0E091F601F091F7010190F0813C
:100C8000E02D6DE286EF91E00995F7FAF094F7F820
:100C9000F0942AE037ED43EA5BE3C701B6010E9416
:100CA000F3064B015C010E94D6076B017C010E9498
:100CB00005089B01AC01C501B4010E94F2064B017D
:100CC0005C014AE0C701B6010E949E03E091F60173
:100CD000F091F7010190F081E02D6EE286EF91E056
:100CE000099520E030E040E251E4C501B4010E94E2
:100CF0000C094B015C010E94D6076B01E12CF12C21
:100D00004AE0C701B6010E949E03C701B6010E94D6
:100D100005089B01AC01C501B4010E94F20620E068
:100D200030E040E251E40E940C090E94D60780E0C6
:100D300090E04AE00E949E038FE391E00E948C03C2
:100D40000E945D024B015C0184EFC82EDD24D39428
:100D5000E12CF12C0E945D02DC01CB01881999097C
:100D6000AA09BB09883E9340A105B10558F021E0CE
:100D7000C21AD108E108F10888EE880E83E0981EB7
:100D8000A11CB11CC114D104E104F10419F70E94A3
:100D900082038FCEA1E21A2EAA1BBB1BFD010DC040
:100DA000AA1FBB1FEE1FFF1FA217B307E407F5071B
:100DB00020F0A21BB30BE40BF50B661F771F881FF7
:100DC000991F1A9469F760957095809590959B018D
:100DD000AC01BD01CF010895EE0FFF1F0590F49106
:100DE000E02D09945058BB27AA270E940A070C94AB
:100DF0007D080E946F0838F00E94760820F039F4D0
:100E00009F3F19F426F40C946C080EF4E095E7FB70
:100E10000C946608E92F0E948E0858F3BA176207EF
:100E200073078407950720F079F4A6F50C94B008B1
:100E30000EF4E0950B2EBA2FA02D0B01B9019001F5
:100E40000C01CA01A0011124FF27591B99F0593F39
:100E500050F4503E68F11A16F040A22F232F342F81
:100E60004427585FF3CF469537952795A795F040CF
:100E70005395C9F77EF41F16BA0B620B730B840BE4
:100E8000BAF09150A1F0FF0FBB1F661F771F881F9C
:100E9000C2F70EC0BA0F621F731F841F48F48795F4
:100EA00077956795B795F7959E3F08F0B0CF9395E6
:100EB000880F08F09927EE0F9795879508950E945F
:100EC000420808F481E008950E9478070C947D0898
:100ED0000E94760858F00E946F0840F029F45F3FA6
:100EE00029F00C94660851110C94B1080C946C080C
:100EF0000E948E0868F39923B1F3552391F3951B53
:100F0000550BBB27AA2762177307840738F09F5F2A
:100F10005F4F220F331F441FAA1FA9F335D00E2E97
:100F20003AF0E0E832D091505040E695001CCAF704
:100F30002BD0FE2F29D0660F771F881FBB1F2617C7
:100F400037074807AB07B0E809F0BB0B802DBF019E
:100F5000FF2793585F4F3AF09E3F510578F00C946D
:100F600066080C94B1085F3FE4F3983ED4F386958D
:100F700077956795B795F7959F5FC9F7880F911D8E
:100F80009695879597F90895E1E0660F771F881F7A
:100F9000BB1F621773078407BA0720F0621B730B2D
:100FA000840BBA0BEE1F88F7E09508950E9496080F
:100FB00088F09F5798F0B92F9927B751B0F0E1F01A
:100FC000660F771F881F991F1AF0BA95C9F714C0CA
:100FD000B13091F00E94B008B1E008950C94B008CF
:100FE000672F782F8827B85F39F0B93FCCF3869503
:100FF00077956795B395D9F73EF490958095709560
:1010000061957F4F8F4F9F4F0895E89409C097FBDC
:101010003EF490958095709561957F4F8F4F9F4FCF
:101020009923A9F0F92F96E9BB279395F695879513
:1010300077956795B795F111F8CFFAF4BB0F11F4D6
:1010400060FF1BC06F5F7F4F8F4F9F4F16C088237D
:1010500011F096E911C0772321F09EE8872F762FB3
:1010600005C0662371F096E8862F70E060E02AF0F4
:101070009A95660F771F881FDAF7880F96958795E0
:1010800097F90895990F0008550FAA0BE0E8FEEFB5
:1010900016161706E807F907C0F012161306E4073C
:1010A000F50798F0621B730B840B950B39F40A2635
:1010B00061F0232B242B252B21F408950A2609F413
:1010C000A140A6958FEF811D811D089597F99F6717
:1010D00080E870E060E008959FEF80EC08950024C0
:1010E0000A941616170618060906089500240A948D
:1010F00012161306140605060895092E0394000C13
:1011000011F4882352F0BB0F40F4BF2B11F460FFA1
:1011100004C06F5F7F4F8F4F9F4F089557FD9058CA
:10112000440F551F59F05F3F71F04795880F97FBAB
:10113000991F61F09F3F79F0879508951216130665
:101140001406551FF2CF4695F1DF08C01616170694
:101150001806991FF1CF86957105610508940895C9
:10116000E894BB2766277727CB0197F908950E945B
:10117000420808F48FEF089516F00C947E090C9441
:101180006C0868940C9466080E949608A8F399234A
:10119000C1F3AEF3DF93CF931F930F93FF92C92F49
:1011A000DD2788232AF02197660F771F881FDAF73B
:1011B00020E030E040E85FEB9FE3883920F0803E9C
:1011C00038F021968F770E94F306E8E6F0E004C03D
:1011D0000E94F306E5E9F0E00E948C098B01BE0154
:1011E000EC01FB2E6F5771097595771F880B990BD2
:1011F0000E94070828E132E741E35FE30E941F09EC
:10120000AF2D9801AE01FF900F911F91CF91DF910B
:101210000E940A070C947D080E941F090C947D0807
:101220000E946F0838F00E94760820F0952311F094
:101230000C9466080C946C0811240C94B1080E945C
:101240008E0870F3959FC1F3950F50E0551F629F74
:10125000F001729FBB27F00DB11D639FAA27F00D0F
:10126000B11DAA1F649F6627B00DA11D661F829F36
:101270002227B00DA11D621F739FB00DA11D621F1B
:10128000839FA00D611D221F749F3327A00D611D38
:10129000231F849F600D211D822F762F6A2F11241A
:1012A0009F5750409AF0F1F088234AF0EE0FFF1F4D
:1012B000BB1F661F771F881F91505040A9F79E3FA4
:1012C000510580F00C9466080C94B1085F3FE4F37C
:1012D000983ED4F3869577956795B795F795E795FA
:1012E0009F5FC1F7FE2B880F911D9695879597F903
:1012F00008950E944208880B990B08959F3F31F092
:10130000915020F4879577956795B795880F911D33
:101310009695879597F90895DF93CF931F930F9331
:10132000FF92EF92DF927B018C01689406C0DA2E67
:10133000EF010E941F09FE01E894A59125913591C6
:1013400045915591A6F3EF010E940A07FE0197010E
:10135000A801DA9469F7DF90EF90FF900F911F9149
:10136000CF91DF91089581E090E0F8940C94B80952
:04137000F894FFCF1F
:101374000000000019038202B1026003E202C0020D
:10138400D40200000000B5018202AE02AD02437532
:101394007272656E7420726F6F6D0054656D70208B
:1013A4003D20006E616E00696E66006F76660020F7
:0213B4004300F4
:00000001FF
